:020000040800F2
:10000000000002203941010869EE0008A5EE000851
:10001000B9EE0008BDEE0008C1EE000800000000C7
:1000200000000000000000000000000071CB00088C
:10003000C5EE00080000000001CC0008C9EE000871
:100040008D4101088D4101088D4101088D41010854
:100050008D4101088D410108A9F000088D4101087A
:10006000B1F00008B9F00008C1F00008CDEE0008BA
:100070008D410108D9EE00088D410108E5EE000828
:10008000F1EE00088D410108B9EF0008FDEE00080F
:1000900009EF000815EF000821EF0008C9F000087B
:1000A0008D41010869F000088D4101088D4101086A
:1000B0008D4101088D4101088D41010891F0000832
:1000C0009DF000088D4101088D4101088D41010816
:1000D0008D4101088D4101088D4101088D410108C4
:1000E000F1F000088D4101088D4101088D410108A2
:1000F0007DF000082DEF00088D4101088D410108B9
:100100008D4101088D4101084DF0000849EF0008BC
:1001100055EF00088D4101088D4101088D4101080E
:100120008D4101088D4101088D4101088D41010873
:100130008D41010800000000000000008D41010811
:100140008D4101088D4101088D41010861EF0008D2
:100150008D4101088D4101088D4101088D41010843
:100160008D4101088D4101088D4101088D41010833
:100170008D4101088D4101080000000000000000D1
:080180008D4101088D410108C9
:1001C0000348044B834202D0034B03B118477047E6
:1001D000F8050020F8050020000000000548064B47
:1001E0001B1AD90F01EBA301491002D0034B03B135
:1001F00018477047F8050020F805002000000000AF
:1002000010B5064C237843B9FFF7DAFF044B13B15E
:100210000448AFF300800123237010BDF8050020CF
:10022000000000008CBC020808B5044B1BB1044957
:100230000448AFF30080BDE80840CFE700000000AD
:10024000FC0500208CBC020808B52DED028BF0EEF9
:10025000408AB0EE608A00F01BF8F4EE488AF1EEB6
:1002600010FA06D6DFED098AB4EE688AF1EE10FACC
:1002700002D0BDEC028B08BD03F0CCF988EEA80AD1
:10028000BDEC028B2123036008BD00BF000000000D
:1002900070B582B0CDED010A019820F000435A1EDE
:1002A000B2F1FF4F3BD210EE101A21F00044B4F12E
:1002B000FF4F34D29C4238DB01F0004258D011F09D
:1002C000FF4F00F0FF463ED14FEA042C6FF07D0552
:1002D0004FEA4C0CBCF1000F05F1FF35F8DC002EA5
:1002E00066D118026FF07D0E40000EF1FF3EFBD587
:1002F00015F17E0F77DA6FF07D00411B04FA01F1F2
:10030000A5EB0E05A0EB0E04A340681EA5B9CB1A01
:10031000002B75DB2CD0B3F5000F35DB41E0DDEDB4
:10032000017A60EE277A87EEA70A02B070BD1FD06F
:100330004FEA4C01013822D3A1EB030CBCF1000FB2
:10034000F5DA4900F6E7E51586B3DB15C0F31600CC
:10035000ED1AC1F31601A3F17F0E41F4000140F440
:100360000003681E002DE7D1CB1A002B30DB0BD128
:10037000274B03EB527393ED000A02B070BDCB1A0A
:1003800048BF0B461BB9F3E75B000EF1FF3EB3F528
:10039000000FF9DB1EF17E0F1BDA6FF07D04A4EB7A
:1003A0000E042341134300EE103ABEE77F3D98E769
:1003B000DB15A3F17F0EC0F316006FF07D0140F452
:1003C0000003491BA5EB0E0004FA01F10138B3E765
:1003D0000B46A3F500030EF17F0E134343EACE5301
:1003E00000EE103AA1E76FF07D04C1F31601A5EB12
:1003F0000E00A4EB0E0441F400010138A3409BE77A
:100400000029B5D0B1F5000F0B46BDDBC9E700BF31
:1004100064BD020808B52DED028BF0EE408AB0EE07
:10042000608A00F08FF820B9B0EE480ABDEC028B6C
:1004300008BDB0EE480A00F085F858B1F4EEC88A5D
:10044000F1EE10FAC8BFB0EE688AB0EE480ABDEC13
:10045000028B08BDB0EE688AB0EE480ABDEC028B94
:1004600008BD00BF10EE103AC3F3C7527F3A162AF8
:1004700019460EDC002A11DB0C481041034205D05E
:100480004FF4800313410B4423EA000300EE103ABB
:100490007047802AFAD130EE000A7047013203F02B
:1004A0000043F3D143F07E53F0E700BFFFFF7F002E
:1004B00010EE102AC2F3C7537F3B162B22F00041E7
:1004C0001BDC002B10461EDB1A4919410A4223D0BF
:1004D000DFED197A70EE277AF5EEC07AF1EE10FAB8
:1004E0001ADD002A04DA4FF4000242FA03F318443A
:1004F00020EA010300EE103A7047B1F1FF4F0BD331
:1005000030EE000A7047DFED0C7A70EE277AF5EED8
:10051000C07AF1EE10FA00DC7047002A02DB9FED92
:10052000070A704711B99FED060A7047BFEE000A2F
:10053000F2E700BFFFFF7F00CAF249710000000030
:100540000000008010EE103A33F000400ED0A0F50D
:100550000003B3F1FE4F0DD3074B421E9A4207D959
:10056000A0F1FF40B0FA80F04009704702207047C8
:100570000320704704207047FEFF7F0008B410B5C9
:10058000002A9DB0044636DB4FF40273ADF81430F8
:100590004FF000031B930291069120AB17D0013A54
:1005A0004FF6FF7104920792ADF816101F9A01934F
:1005B00002A900F01BFF421C01DA8B232360029B7F
:1005C00000221A701DB0BDE8104001B070474FF610
:1005D000FF7104920792ADF816101F9A019302A9B9
:1005E00000F004FF431C01DA8B2323601DB0BDE83B
:1005F000104001B070478B2303604FF0FF30F5E7E8
:100600000CB410B5214B00291C689CB038DB4FF0AE
:1006100000034FF402721B93ADF814200290069071
:100620001FAB18D001394FF6FF7204910791ADF856
:10063000162002A91E9A0193204600F0D7FE421C04
:1006400001DA8B232360029B00221A701CB0BDE8E4
:10065000104002B070474FF6FF7204910791ADF859
:10066000162002A91E9A0193204600F0BFFE431CEB
:1006700001DA8B2323601CB0BDE8104002B0704744
:100680008B2323604FF0FF30F5E700BF0000002010
:1006900010B4044C03460A4620685DF8044B194622
:1006A00002F0C4BD0000002000B5054B83B0014638
:1006B00001AA186802F0BAFD03B05DF804FB00BFA0
:1006C00000000020844641EA000313F003036DD1CB
:1006D000403A41D351F8043B40F8043B51F8043B05
:1006E00040F8043B51F8043B40F8043B51F8043B0C
:1006F00040F8043B51F8043B40F8043B51F8043BFC
:1007000040F8043B51F8043B40F8043B51F8043BEB
:1007100040F8043B51F8043B40F8043B51F8043BDB
:1007200040F8043B51F8043B40F8043B51F8043BCB
:1007300040F8043B51F8043B40F8043B51F8043BBB
:1007400040F8043B51F8043B40F8043B51F8043BAB
:1007500040F8043B403ABDD2303211D351F8043B4B
:1007600040F8043B51F8043B40F8043B51F8043B8B
:1007700040F8043B51F8043B40F8043B103AEDD2FA
:100780000C3205D351F8043B40F8043B043AF9D24B
:10079000043208D0D2071CBF11F8013B00F8013B1E
:1007A00001D30B8803806046704700BF082A13D32B
:1007B0008B078DD010F003038AD0C3F10403D21A43
:1007C000DB071CBF11F8013B00F8013B80D331F877
:1007D000023B20F8023B7BE7043AD9D3013A11F8F7
:1007E000013B00F8013BF9D20B7803704B78437062
:1007F0008B78837060467047032A30B412D941EA7F
:100800000004A40784460B4621D11946604653F8DC
:10081000044B5CF8045BA54219D1043A032AF4D8CE
:1008200060461946541E7AB1431E0139021901E08F
:100830009A4209D013F8010F11F801CF6045F7D0A3
:10084000A0EB0C0030BC7047002030BC7047541E39
:10085000EAE700BF00B50B4C25681446EE681A465F
:1008600085B003460D464CB107490095CDE901140A
:100870003046064902F0E2FE00F064FF04490C46EF
:10088000F3E700BF0000002030D7020840D702087D
:10089000A0C2020808B513460022FFF7DBFF00BF25
:1008A0000EB470B59DB021AC00254FF4017254F820
:1008B000046BADF814201B950290069002F0C0FB6B
:1008C0000B4B0B930B4B03904FF6FF710790ADF85A
:1008D000161018680F953246234602A91495019404
:1008E00003F06EFB1DB0BDE8704003B0704700BF61
:1008F00079170008000000200CB4F0B59DB022ACC0
:1009000000254FF401730646084654F8047BADF801
:100910001430029106911B9502F092FB034603935B
:1009200007930A4B0B934FF6FF73ADF816303A4618
:100930003046234602A90F951495019403F040FB1D
:100940001DB0BDE8F04002B0704700BF7917000845
:100950002DE9F04755EC104B84B0002D0D9E8946D3
:1009600092463DDB0027652E1F7035D03DDC452EBD
:1009700032D0462E5AD1032103AB019302AB009330
:1009800045EC104B0C9B4A4601F044FA074626F012
:100990002003462B07EB090805D13B78302B39D0D3
:1009A0000C9B1B689844204629460022002307F030
:1009B000EBFE002838D1039B984506D930215A1CFC
:1009C00003921970039B4345F9D30E9ADB1B3846FB
:1009D000136004B0BDE8F08709F101090221CBE7FB
:1009E00005F100422D271546BDE7662EC3D003ABA7
:1009F000019302AB009345EC104B0C9B4A4602213D
:100A000001F008FA672E0746C1D11AF0010F1ED176
:100A1000039BDAE7002200232046294607F0B4FEB4
:100A2000C0B10C9B1B6898444346CEE703AB0193CF
:100A300002AB009345EC104B0C9B4A46022101F09F
:100A4000E9F9472E0746A2D11AF0010FE0D007EBD3
:100A50000908A8E70C9AC9F101031360A2E700BFD7
:100A600070B50029BABF49422D232B23092982B032
:100A7000027043702CDD0DF10705194EAE46A6FB42
:100A80000123DB0803EB8302A1EB42020C46303268
:100A9000632CF4460EF8012C19460EF1FF3EEEDCF5
:100AA000ACF102033031AB420EF8011C00F102043C
:100AB0000BD2421C13F8011B02F8011FAB42F9D103
:100AC0000DF109031C44A4EB0C04201A02B070BD04
:100AD00030231944041D8370C170201A02B070BD08
:100AE000CDCCCCCC2DE9F04F8DB00C46DDF8588044
:100AF00016461F46054600F0D9FA036806931846C5
:100B000002F09EFAD8F8003094F818A0D4F800B09B
:100B10000790073323F00703B3EC027B0022C8F8E9
:100B200000300A9253EC172B904623F0004984EDD5
:100B3000127BA04B4FF0FF32404649468DED047BBF
:100B400007F054FE40B99B4B404649464FF0FF32F8
:100B500007F02EFE002871D0DDE9040102460B46A5
:100B600007F044FE002840F0108261684B1C4BF4F3
:100B700080620AF0DF0832D0B8F1470F00F022811E
:100B80000023226003930AAB029309AB00939DED0F
:100B9000040BCDF804A00DF123032846FFF7D8FE7F
:100BA0008146BAF1650F099937D9BAF1660F00F09D
:100BB00073810A9B8B4240F324810029D4BFC1F189
:100BC0000202012213442361A1654FF0000B9DF83E
:100BD0002330002B4BD02D2384F8433047E00621EF
:100BE00000232260CDF804A0616003930AAB029356
:100BF00009AB00939DED040B0DF123032846FFF78D
:100C0000A7FEB8F1470F8146CBD10999C81C80F2E5
:100C1000F180AAF1020A5FFA8AFA0139524604F118
:100C200050000991FFF71CFF0A9A1318012A834606
:100C3000236140F32C8101332361C8E7DDE904011E
:100C40000022002307F0AAFD10B12D2384F84330C1
:100C5000BAF1470F2BF004024FF0030394BFDFF803
:100C60005C91DFF85C91226023614FF0000B0097EC
:100C700033460BAA2146284603F0B0FB013023D0AF
:100C8000236858052BD423694A4631462846B8477D
:100C9000013019D02268E0680B9B920719D5984261
:100CA00017DD4FF0000804F1190904E0E0680B9B20
:100CB000C21A42450DDD01234A4631462846B8474F
:100CC000013008F10108F1D14FF0FF300DB0BDE85F
:100CD000F08F9842B8BF18460DB0BDE8F08FBAF15A
:100CE000650F33D9D4E912010022002307F04CFD2F
:100CF000002800F08E80304A012331462846B8474C
:100D00000130E1D0DDE9093A534502DB2268D10721
:100D1000C1D5DDE9062331462846B8470130D3D096
:100D2000BAF1010FB6DD0AF1FF3A4FF0000904F104
:100D30001A0801E0CA45ADD0012342463146284693
:100D4000B847013009F10109F4D1BDE7DDF8288089
:100D5000B8F1010F40F38C8001234A463146284602
:100D6000B8470130B0D0DDE9062331462846B84700
:100D70000130A9D0D4E912010022002308F1FF3A82
:100D800007F002FD002800F09180B8F1010F7ADD34
:100D90004FF0000904F11A0801E0D14573D0012396
:100DA000424631462846B847013009F10109F4D1DD
:100DB0008AE700BFFFFFEF7F70D4020870D70208F8
:100DC00074D7020809B901216160002322600393EE
:100DD0000AAB029309AB00939DED040BCDF804A080
:100DE0000DF123032846FFF7B3FD09998146C81C7E
:100DF000FFF60FAF636899423FF70BAF4FF0670AFA
:100E0000D7E623682161DB077FF5DEAE4B1C23614B
:100E1000DAE6099B002B54DD0A9BD4F858B0049302
:100E20005B45A8BF5B46002B984608DD4A46314625
:100E30002846B84701303FF447AFD4F858B028EA05
:100E4000E872934576DD4FF0000A04F11A089346E4
:100E500004E0A36DA3EB0B0252456ADD0123424679
:100E600031462846B84701300AF1010AF1D12BE793
:100E7000D9073FF571AF4A46012331462846B847A6
:100E800001303FF421AF5B4604F15002FDE62268D9
:100E9000D2077FF59CAECEE6002963680ADD2161AA
:100EA000002B3AD001330B4423618DE6534609F100
:100EB0000102E2E7002B35D12268D20732D40123A8
:100EC00081E64E4A012331462846B84701303FF4B7
:100ED000FBAEDDE9093A5AEA030325D0DDE9062332
:100EE00031462846B84701303FF4EEAE099B002B4F
:100EF00080F281804FF0000B04F11A0803E0099B97
:100F00005B425B4577DD0123424631462846B847C0
:100F100001300BF1010BF2D1D6E62268D0077FF544
:100F200053AEBFE702334EE62268D3077FF5B3AE78
:100F3000D4E79B46099B049999423CDC2268D00780
:100F400039D4CB1AA1EB0B0A9A45A8BF9A462AEAD4
:100F5000EA7A53457FF79EAEDDF810B04FF00009F6
:100F600004F11A0807E0099BABEB0303A3EB0A03A8
:100F70004B457FF78FAE0123424631462846B8479E
:100F8000013009F10109EED19EE6059B002BBCBFA3
:100F90002D2384F843302BF00403BAF1470F23606C
:100FA0004FF0030394BFDFF85890DFF858902361A7
:100FB0004FF0000B5BE6DDE9062331462846B847D3
:100FC00001303FF481AE049A099BA2EB0B0AD31ABD
:100FD0009A45A8BF9A46BAF1000FB8DD09EB0B029B
:100FE000534631462846B84701303FF46DAE099B61
:100FF000049AD31AABE753464A4646E670D4020831
:1010000078D702087CD70208036A2DE9F04184688A
:1010100080460E46002B3BD0A3891B0717D52369BA
:10102000ABB1013EA36816F8015F013BA360EDB1CF
:10103000002B07DAA7699F4222462946404610DC6A
:101040000A2D0ED023685A1C22601D70EAE7214643
:10105000404602F007FB0028E3D04FF0FF30BDE828
:10106000F08106F06FF80130DCD1F6E7002B09DAE9
:1010700022460A21404606F065F80130EDD00A20EC
:10108000BDE8F08123680A22591C21601A70F6E736
:1010900003F06AFCC0E700BF024B01461868FFF787
:1010A000B3BF00BF00000020F03070470048704719
:1010B0004001002000487047400100202DE9F04722
:1010C000074649480E46354616F801EB10F80EC0A3
:1010D0001CF0080CF7D1BEF12D0F5AD0BEF12B0F2A
:1010E00003BF96F800E06446AE1C64464BB9BEF1FF
:1010F000300F5CD00A23DFF8F4804FF0050A9946E0
:101100000AE0102B4AD04FF0FF38B8FBF3F803FB8E
:1011100008FA6FEA0A0A99460025284605E02CD00D
:1011200009FB00C0012516F801EBAEF1300CBCF153
:10113000090F06D9AEF1410CBCF1190F0BD8AEF175
:10114000370C634510DDB5F1FF3FECD04045E6D9E3
:101150004FF0FF35E7E7AEF1610CBCF1190F03D892
:10116000AEF1570C6345EEDC6B1C0BD004B1404272
:101170000AB165B91160BDE8F087D445D0DD4FF004
:10118000FF35D0E722233B602846002AF3D0711EAA
:10119000F0E796F800E00124AE1CA7E7BEF1300F9F
:1011A00011D04FF00F0A6FF070489946B4E73378CA
:1011B00003F0DF03582B0BD008234FF0070A6FF022
:1011C00060489946A8E7307800F0DF005828E8D159
:1011D0004FF0100996F801E04FF00F0A02366FF059
:1011E00070484B4698E700BF6DBD02089999991960
:1011F00064E700BF10B4044C8446134620685DF8D1
:10120000044B0A46614659E70000002010B4044C24
:101210008446134620685DF8044B0A4661464DE754
:10122000000000202DE9F0478F681D46AF420B6893
:101230000C46164636D8B1F90CC01CF4906F0ED18E
:101240003D46184631462A4600F0E4F9A368DF1B04
:101250002368A7602B4400202360BDE8F0874A691B
:10126000096902EB42025F1A02EBD2726B1C521048
:101270003B44934292BF914699461A461CF4806FB4
:10128000804611D0114600F0AFFC824600B32169C0
:101290003A46FFF717FAA38923F4906343F08003DB
:1012A000A38105E02F46CCE702F008F8824658B14A
:1012B0000AEB0703A9EB0707A760C4F810A0C4F85E
:1012C000149023602F46BCE72169404601F0EEFDF3
:1012D000A3890C2243F04003C8F800204FF0FF30F0
:1012E000A381BAE72DE9F04F936883B09246002BB3
:1012F00075D04FF0000B17688B680A6881460C4662
:101300005D4645E0B4F90C3013F4906F2CD0D4E96D
:101310000401161A01EB410202EBD272711C521049
:101320002944914292BF904688460A465B0539D5CA
:101330001146484600F058FC019000283DD0324646
:101340002169FFF7BFF9A289019B22F4906242F064
:101350008002A2819819A8EB0606A660C4F8148042
:1013600023612060A8462E463246594600F052F9C5
:10137000DAF80810A3682268A3EB08033244491B7B
:10138000A3602260CAF8081049B3D7E900B508374E
:1013900098461046002DF8D09D421E46B2D2A8466F
:1013A0002E46E1E70146484601F088FF0346002843
:1013B000D0D12169484601F079FDA3890C2243F080
:1013C0004003C9F800204FF0FF30A3810022002322
:1013D000CAF80820CAF8043003B0BDE8F08F002036
:1013E0000023CAF8043003B0BDE8F08F2DE9F047C0
:1013F0001C468B891D069CB00F468046924603D53D
:101400000B69002B00F0ED800023099343F22003C9
:10141000ADF829309AF80030794D03940126002B5D
:1014200071D0D14603E019F8013F002B72D0252B73
:10143000F9D1B9EB0A0470D199F80020002A62D0E2
:1014400000234FF0FF32CDE9052309F10109049390
:1014500007938DF853301A9304E006FA03F313430D
:101460000493A1464C46052214F8011B284602F0BD
:1014700077F9A246049A431B0028EED1D00644BF58
:1014800020238DF85330110799F8001044BF2B2307
:101490008DF853302A294ED1039B19680433002953
:1014A00003937ADB079199F801102E2959D05548FA
:1014B000032202F055F940B1524A049B801A40229F
:1014C000824013430AF1010A04931AF8011B4E48A3
:1014D0008DF82810062202F043F9002863D04B480B
:1014E000002853D003AA0092494B3A4604A940462B
:1014F000FFF7F8FA421C06D0099B034409939AF8B7
:101500000030002B8DD1BB895B0676D409981CB0C6
:10151000BDE8F087B9EB0A04F5D0234652463946B8
:101520004046FFF77FFE0130EDD0099B99F800207F
:101530002344099382E7A1F13002092A88BFCA46F1
:10154000B3D8079B00E00134217803EB830302EB5F
:101550004303A1F13002092AF5D92E290793A246A7
:10156000A5D19AF801102A2926D1039B9AF80210D6
:101570001A6805920433002A0AF102000393B8BFE7
:101580004FF0FF338246B8BF059390E7039B0733C4
:1015900023F0070308330393AEE7494242F0020207
:1015A000079104927FE703AA0092194B3A4604A9D7
:1015B000404602F0A5FF9DE7A1F130020023092A71
:1015C00005930AF1010A3FF672AF1AF8011F03EB07
:1015D000830302EB4303A1F13002092AF5D90593F5
:1015E00065E7402100F000FB3860386110B140230E
:1015F0007B6109E70C23C8F800304FF0FF3086E725
:1016000080D7020888D702088CD70208E50A0008AC
:10161000251200088842F0B514D98B18834211D9DD
:10162000032A00EB020166D802F1FF3C4AB16FEADF
:101630000C0C0A469C4413F8011D02F8011D634579
:10164000F9D1F0BD032A0FD8034602F1FF3C002A6E
:10165000F7D00CF1010C013B8C4411F8012B03F87D
:10166000012F6145F9D1F0BD41EA00039B073ED14E
:101670000F2A64D9A2F1100301F1100423F00F0323
:101680002031A446194400F1100E5CF8105C4EF8AD
:10169000105C5CF80C5C4EF80C5C5CF8085C4EF876
:1016A000085C5CF8045C4EF8045C0CF1100C8C4592
:1016B0000EF1100EE9D1E11812F00C0F034402F004
:1016C0000F0E03F1100338D02EF00305043D1A1F4E
:1016D0005E198C465CF8044B42F8044FB242F9D1D3
:1016E0000431043329442B440EF00302ADE702F128
:1016F000FF3C0346ADE741EA0304A4071F4602D0BE
:1017000002F1FF3C93E7A2F1040E2EF003068E1BBC
:101710004FEA9E0E8C46644653F8045D4CF8045D17
:10172000B442F8D1CEEB8E7301EB830107EB830754
:101730003B1F043902F0030276E7724685E7034651
:101740009646C1E708B5062002F046FB012008F0E6
:101750002FFB00BF10B50C46B1F90E1001F090FB45
:10176000002803DB636D0344636510BDA38923F484
:101770008053A38110BD00BF002070472DE9F041C8
:101780000C46B1F90C101F46CB05054616460BD486
:1017900021F48051A1813B46B4F90E10324628460F
:1017A000BDE8F04102F004BEB4F90E10022300229D
:1017B00001F014FCB4F90C10EAE700BF10B50C46B8
:1017C000B1F90E1001F00AFCB4F90C30421C0EBF46
:1017D00023F4805343F480536065A38110BD00BFA0
:1017E000B1F90E1001F0D8BB11F0FF01034600F073
:1017F000030239D08ABB026810B501EB012E0EEB53
:101800000E4E8EEA0204A2F1013323EA0203A4F190
:10181000013222EA0402134313F0803F0FD150F843
:10182000044F84EA0E0CA4F10133ACF1013223EA37
:10183000040322EA0C02134313F0803FEFD0037835
:1018400023B936E010F8013F002B32D09942F9D18C
:1018500010BD8A4228D09A0729D01A781846013339
:10186000002AF6D110467047CAB90268A2F10133C6
:1018700023EA020313F0803F08D150F8042FA2F1AD
:10188000013323EA020313F0803FF6D003785BB103
:1018900010F8013F002BFBD17047990705D018467F
:1018A00013F8012B002AF8D170471846DDE71846D7
:1018B000A1E7184610BD00BF0000000000000000B6
:1018C00002780B78012A28BF9A4240F0D8806DE94F
:1018D000044540EA0104CDE902676FF0000C4FEACD
:1018E00044721AB380EA010414F0070F6BD100F0C0
:1018F000070420F0070004F0030521F007014FEA78
:10190000C505F0E8042314F0040FF1E804670CFAAD
:1019100005F462EA040266EA04060BD063EA0403F3
:10192000624667EA0407664604E000BFF0E8042365
:10193000F1E8046782FA4CF582EA0604A4FA8CF412
:101940006CBB83FA4CF583EA0705A5FA8CF595B9CB
:1019500050E9022351E9026782FA4CF582EA060453
:10196000A4FA8CF483FA4CF583EA0705A5FA8CF502
:101970002543DBD09CB92DBAB5FA85F424F00704D1
:1019800027FA04F1DDE9026723FA04F303F0FF000C
:1019900001F0FF01FDE80445A0EB0100704724BA07
:1019A000B4FA84F424F0070426FA04F1DDE90267AE
:1019B00022FA04F202F0FF0001F0FF01FDE8044505
:1019C000A0EB0100704714F0030F3CD110F00304AA
:1019D00028D150F8082B51F8083B82FA4CF582EADE
:1019E0000305A5FA8CF55DB950F8042C51F8043CB8
:1019F00082FA4CF582EA0305A5FA8CF5002DE8D0B1
:101A00002DBAB5FA85F424F0070423FA04F122FA7A
:101A100004F202F0FF0001F0FF01FDE80445A0EB35
:101A2000010070474FEAC40420F0030050F8082B6F
:101A300021F0030151F8083B0CFA04F462EA0402B5
:101A400063EA0403C9E710F003041DD0A1EB04010D
:101A500020F00300E40750F8042B06D012D28B7854
:101A60005FFAA2F4E41A06D12BB1CB785FFAB2F494
:101A7000E41A00D133B920465DF8104B7047A2EB51
:101A80000300704701F1040150F8042BCC0721F04A
:101A9000030151F8043B48D824D222F07F4482FA53
:101AA0004CF594EA1325A5FA8CF50AD165B951F8DD
:101AB000043B84EA0204B4EB036F0ED150F8042B0C
:101AC000EBE74FEA132355E035F07F454DD1087819
:101AD000FDE80445C0F1000070474FEA126203F0D0
:101AE000FF0347E002EA1C4482FA4CF594EA1345EE
:101AF000A5FA8CF50AD165B951F8043B84EA0204D1
:101B0000B4EB034F0CD150F8042BEBE74FEA13432F
:101B100030E015EA1C4528D10B884FEA124229E033
:101B20004FEA124203EA1C4324E002F0FF0482FA67
:101B30004CF594EA1365A5FA8CF50AD165B951F80C
:101B4000043B84EA0204B4EB032F09D150F8042BC0
:101B5000EBE74FEA13630DE015F0FF0F05D10B68BB
:101B60004FEA122223F07F4304E04FF00000FDE82B
:101B70000445704712BA1BBA82FA4CF482EA030495
:101B8000A4FA8CF5B5FA85F402FA04F203FA04F328
:101B90004FEA1260FDE80445A0EB1360704700BFF8
:101BA00070B5104E336805460C46B3B12146284641
:101BB00005F09AFB431C0CD0C41C24F00304A04283
:101BC00005D0211A284605F08FFB013001D02046B0
:101BD00070BD4FF0FF34204670BD194605F084FB00
:101BE0003060E3E7140600202DE9F843CD1C25F012
:101BF000030508350C2D38BF0C25002D064618DBD3
:101C0000A94216D8DFF8DC8001F000FDD8F80420E6
:101C1000A2B1144603E0636822467BB11C462368E8
:101C20005B1BF8D40B2B1FD8A242636854D05360BF
:101C30000CE00C2333600020BDE8F88329463046D1
:101C4000FFF7AEFF431C044619D00560304601F093
:101C5000DFFC04F10B00231D20F00700C21A1CBF9B
:101C60001B1AA350BDE8F8836119A242256014BF76
:101C70005160C8F80410635163684B60E6E7D8F818
:101C800004701FB33C467F68002FFBD123683946A0
:101C9000304604EB030905F027FB814516D1236884
:101CA000ED1A29463046FFF77BFF01300ED023683E
:101CB000D8F804202B442360536883B1A34203D097
:101CC0001A465B689C42FBD10023B0E70C233360CB
:101CD000304601F09DFCAEE7C8F80430B6E7C8F81E
:101CE0000470B3E7140600202DE9F04F03690C6976
:101CF000A34283B0C0F28A80013C01F1140500F1D7
:101D0000140855F8243058F8242001339A428E469E
:101D100081464FEA840105EB840708EB840AB2FB95
:101D2000F3F63AD3CDE900150022AC4640461346FF
:101D30005CF8041B05681FFA81FB06FB0B22090CEB
:101D40004FEA124B06FB01BB92B2A9B2891A1944A1
:101D50001FFA8BF3C3EB214303EB154389B241EA2E
:101D60000341674540F8041B4FEA1B424FEA2343F7
:101D7000DED2DDE9001558F8013073B9AAF1040A82
:101D8000D04504D307E0D04504F1FF3403D25AF81C
:101D90000439002BF7D0C9F810407146484603F0CB
:101DA00083F900282EDB4146002255F8040BD1F8B8
:101DB00000C01FFA80FE1FFA8CF3A3EB0E0313443E
:101DC000020CC2EB234202EB1C429BB243EA0243E9
:101DD000AF4241F8043B4FEA2242E6D258F82420B1
:101DE00008EB84036AB9043B434504D807E09845EF
:101DF00004F1FF3403D253F80429002AF7D0C9F8BC
:101E000010400136304603B0BDE8F08F002003B02B
:101E1000BDE8F08F2DE9F04FC569A1B0CDE90A32D8
:101E20008DED040B57EC106B04460291002D00F071
:101E3000A081296849B16A684A60012393408B6098
:101E400002F046FEE36900221A60B7F100092A9AFF
:101E5000B4BF012300231360B34BBCBF29F000497A
:101E6000CDF8149033EA090300F0A2809DED047BC5
:101E7000002251EC170B00238DED007B06F084FC53
:101E8000824668B10A9A012313602B9B13B12B9AE7
:101E9000A64B1360A64B0793079821B0BDE8F08FBF
:101EA0009DED000B1EAA1FA9204603F069FA5FEA08
:101EB00019581E9D099040F091801F9B05EB030867
:101EC00008F23243202B40F33B82C3F1400309FA6E
:101ED00003F908F2124326FA03F349EA030006F075
:101EE00071F9012208F1FF38A1F1F8731292194635
:101EF0000022904B06F028F885A3D3E9002306F0D2
:101F0000DBF985A3D3E9002306F020F80646404616
:101F10000F4606F067F982A3D3E9002306F0CCF957
:101F200002460B463046394606F010F806460F4684
:101F300006F072FC002281460890002330463946A4
:101F400006F02CFC002840F02181089EA5EB080536
:101F5000162E05F1FF3B00F2F780774B03EBC6032B
:101F6000D3E90023DDE9000106F018FC002840F069
:101F7000E181002D40F36B850F90B3440E960C90D9
:101F800000230D93029BE769092B3BD8052BC4BFA7
:101F9000043B0293029BA3F10203CCBF0025012561
:101FA000032B31D8DFE813F0F802F502EB02D5017C
:101FB0000A9AC9F3130942F20F7359EA060913602A
:101FC00019D12B9B002B00F04B875C4B07930833F8
:101FD0002B9A0798136021B0BDE8F08FDDE900016E
:101FE000C1F3130343F07F53A8F2FF38CDF848A0A4
:101FF00043F440137BE72B9B002B40F0A681504B12
:10200000079349E70023029300257D602946204677
:1020100002F01EFD0790002800F0B886E369079AD9
:102020001A601F9B002BC0F2BF80089A0E2A00F393
:10203000BB80414B03EBC20393ED007BDDE90089DC
:1020400057EC176B404632463B4649468DED027BC6
:1020500006F05CFA06F0E0FB054606F0C3F83246EF
:102060003B4606F029F90B4602464946404605F034
:102070006BFF05F13003079D05F8013B4FF0FF3A78
:1020800000944FF001095446DDE902AB1DE05246D1
:102090005B463046394606F039FA06F0BDFB80460D
:1020A00006F0A0F852465B4606F006F909F1010970
:1020B0000B4602463946304605F046FF08F130032C
:1020C000A14505F8013B00F048851E4B002206F0B3
:1020D000F3F80022002306460F4606F055FB0028C1
:1020E000D5D0089F009C0137AB460999204602F0E5
:1020F000EFFC00238BF800300A9B1F602B9B002B0A
:102100003FF4CAAE0798C3F800B021B0BDE8F08F25
:1021100061436F63A787D23FB3C8608B288AC63FED
:10212000FB799F501344D33F0000F07F71D4020825
:1021300070D402080000F83F80BE020894D702085D
:10214000A0D702080000244001230F93BBF1000F29
:10215000C0F2EA8000230C93089B002B80F2E18000
:102160000C9A089BD21A5B420D9300230C920E939B
:1021700008E7102000F022FF0246E061002800F08E
:102180006386C0E90055C0E902555EE6484606F0A0
:1021900029F832463B4606F0F7FA00287FF4D5AE20
:1021A00009F1FF330893D0E64FF0FF3A0B95CDF8D5
:1021B00058A0129A002A40F0F2811E9B0D9FC3F195
:1021C00036030C9A01212046D5189B4402F0B6FD37
:1021D0000C9A0646002A40F07C830D9B002B00F0F1
:1021E000F283002F40F0D6830D9A0999204602F021
:1021F00071FE012309900D930121204602F09EFDFE
:102200000E9B0090002B40F01F83029B012B40F39C
:1022100087830120584410F01F0000F0C881C0F1EE
:102220002003042B40F3B1830C9BC0F11C0003443A
:1022300005440C938344002D05DD09992A46204668
:1022400002F0C0FE0990BBF1000F05DD00995A466F
:10225000204602F0B7FE00900F9B002B40F0D88282
:10226000BAF1000F40F3AF820D9B002B40F0FC81D0
:10227000089F0137DDF81C80DDF824B0DDF8009000
:10228000012507E0594600230A22204602F044FCBB
:102290000135834649465846FFF726FD554500F16E
:1022A000300008F8010BEDDB079BCDF824B0BAF144
:1022B000000F0AF1FF3503F10102D8BF002505EB3D
:1022C000020A8146002509990122204602F07AFE81
:1022D0000099099002F0E8FE002840F37783079AFE
:1022E00002E0924500F07D83D3460AF1FF3A1BF8E5
:1022F000013C392BF5D001338AF800300099204693
:1023000002F0E6FB002E3FF4F0AE2DB1B54203D053
:102310002946204602F0DCFB3146204602F0D8FB7D
:10232000E3E69B440E932BE6C5F101030C934FF0BB
:10233000000B11E7089B013B089300230F9305E76F
:10234000C3F1200306FA03F0C9E5B84B0793033342
:102350003EE6012314930B9B089A134403F1010AF0
:102360005646012E1693B8BF0126172E40F36385FB
:10237000012204235B0003F11400B042114602F174
:102380000102F7D97960204602F062FB079000282D
:1023900000F0FC84E369BAF10E0F186000F20E81C0
:1023A000002D00F00B81089A002A40F35983A049C0
:1023B00002F00F0301EBC303D105D3E900674FEA35
:1023C000221540F1E8839B4BDDE90001D3E90823A6
:1023D00006F09CF8CDE9100105F00F054FF0030958
:1023E00085B1DFF85082EA0740F1DD80304639469A
:1023F000F8E8022305F060FF6D1009F101090646B7
:102400000F46F0D1DDE9100132463B4606F07EF87A
:10241000CDE910010F9B53B1DDE91067864B002217
:102420003046394606F0BAF9002840F0698448463B
:1024300005F0D8FEDDE9102305F03EFF7F4B0022BA
:1024400005F084FD0646A1F15077BAF1000F00F0C7
:10245000DB82089B1D93CDF85CA0754B17991C93EC
:10246000CDE91A6703EBC103DDE9105613ED027BDA
:10247000314628468DED187B06F0CEF900F1300389
:102480005FFA83F805F0AEFE0B4602463146284659
:1024900005F05AFD079B0F4614995D1C06461095E2
:1024A000002900F0B283DDE918236549002006F019
:1024B0002DF8DDE91A2305F047FD079B324683F826
:1024C00000803B46CDE9140106F086F9002840F073
:1024D0006B84DDF85C80CDF860B0CDF85CA04FF087
:1024E0000009DDE914AB10942BE009F10109C145A5
:1024F00080F2CB81534B50465946002205F0DCFE5A
:10250000504B002282468B463046394605F0D4FEB9
:102510000F46064606F080F9044605F063FE0246C3
:102520000B463046394605F00FFD303405F8014BB7
:1025300052465B4606460F4606F030F9002840F04A
:10254000328432463B463C49002005F0FDFC5246B1
:102550005B4606F023F90028C7D01D9E109C079A01
:10256000013602E0954200F0F383AB4615F8013DD9
:10257000392BF7D00133DBB22B703746B5E5012399
:1025800014930B9B002B40F3B3810B9E1696B2461F
:10259000EBE600231493DEE600231493F1E70D9F8E
:1025A00003F233430DE66D1008F108081BE71C2306
:1025B0000C9A1A441D440C929B443CE61F9B002B32
:1025C000C0F25881089A0E2A00F35481184B1C93CC
:1025D0001C9B089A03EBC20393ED007B0B9B002B23
:1025E0008DED027B80F2DE82BAF1000F00F3DA8219
:1025F00040F02382144B0022DDE9020105F05CFE6D
:1026000002460B46DDE9000106F0D2F851460028EB
:1026100040F01482DDF81CB031230BF8013B20465A
:1026200002F056FA089F02375FE500BFA0D7020804
:1026300080BE020870BF02080000F03F00001C408E
:102640000000E03F00002440000014403146002319
:102650000A22204602F060FA169B002B064640F341
:10266000E083DDF858A008950C9B002B05DD314672
:102670001A46204602F0A6FC06460E9B002B40F0B0
:102680005582B046079D05F1FF3B0BEB0A030C9307
:10269000049BDDF824B003F001030D930099584624
:1026A000FFF722FB31468246584602F0FDFC0099B6
:1026B00007464246204602F019FDC3680AF1300978
:1026C0000146002B36D10B90584602F0EDFC0B99D9
:1026D0000990204602F0FCF9099B002B58D1029B7F
:1026E0001BB90D9B002B00F08583002FC0F24B839C
:1026F0000C9BAA469D420AF8019B00F0778259463E
:1027000000230A22204602F007FA46458346314656
:102710004FF000034FF00A02204633D002F0FCF9DC
:102720004146064600230A22204602F0F5F95546A6
:102730008046B3E72046CDF824B002F0C9F9002F57
:1027400006DB049B03F00102029B1F433A432CD19A
:1027500009990122204602F035FC0099099002F007
:10276000A3FC002840F33883B9F1390F00F0F3825D
:102770000AF13109AB46089F0BF8019B354601373A
:102780004646BBE502F0C8F955460646804685E751
:10279000002FC0F20283029A17430D9A174300F0EC
:1027A000FC82002BA4DDCDF824B0B9F1390F00F084
:1027B000D282AB46089F09F1010335460BF8013B75
:1027C000013746469AE5029B022B7FF74DADBAF1E1
:1027D000000F40F08D81009953460522204602F0FB
:1027E0009BF901460090099802F05EFC002840F336
:1027F0007F81DDF81CB0009931230BF8013B2046A6
:1028000002F066F9089F0237002E7FF485AD6CE474
:102810000099099802F048FC0028BFF621AD00237A
:102820000999089D0A22204602F076F90D9B09902D
:10283000013D002B7FF40AAF169B002B40F3E6828C
:10284000089FDDF858A015E51A460146204602F01B
:1028500041FB029B0090012B40F35B8100230E9310
:10286000009A136902EB8303186902F0FDF9C0F1C5
:102870002000CFE4149A92B90C9B002B69D10D9BD8
:10288000002B77D11D461E46B6E41F9B109C002BE3
:10289000DDE917AB03DB089A0E2A7FF799AE029A9F
:1028A000012A7FF786AC0D9B0AF1FF37BB42C0F2CD
:1028B0000081BAF1000FA3EB070780F2A482012187
:1028C00020460C9D02F03AFAA5EB0A080646CDF820
:1028D0003080BBF1000F7FF780AC0C9A5A4513464D
:1028E000A8BF5B46D21AED1A0C92ABEB030B74E453
:1028F00000217960204602F0ABF80790002800F034
:102900004582E369079A1A60002D40F0FE801F9B04
:10291000002BC0F268820122169292460B9251E679
:10292000049B002B7FF475AC059BC3F31303002BB2
:102930007FF46FAC059B23F000431B0D1B05002BA0
:102940003FF467AC012301350BF1010B0E931846E0
:1029500060E4BBF1000F00F051810C9A0D9E5A45C6
:102960001346A8BF5B46D51AABEB030B0C95002EA4
:102970003FF442AC0D9A0999204602F0ABFA0023CD
:102980000C9D09900D931E4636E43FF454ACC0F103
:102990003C030DE631463A46204602F09BFADDF84C
:1029A000249001464A460646204602F0DDF9494693
:1029B0008046204602F08CF80D9BCDF82480DB1B6E
:1029C0000D937FF411AC01230D9315E403D119F09D
:1029D000010F7FF484ACD3461AF8013D302BFAD0B6
:1029E0008CE4079A31230137137087E4484605F0D9
:1029F000F9FBDDE9102305F05FFCBB4B002205F07D
:102A0000A5FA0646A1F15077B84B0022DDE9100186
:102A100005F09AFA32463B468046894605F0DCFED0
:102A2000002840F0A38140464946324607F1004362
:102A300005F0B4FE00283FF4C1AD0021204602F0AD
:102A400047F80B9BDDF81CB05F42FFF74EBBC5F1AA
:102A500001030C93089B0F909B460E93FFF790BACF
:102A600000F03A81089BA24A5D4205F00F0302EB99
:102A7000C303D3E90023DDE9000105F01DFC2D119E
:102A8000CDE9100100F0D3819A4E4FF00209EB0717
:102A90000CD5DDE91001F6E8022305F00DFC6D1000
:102AA000CDE9100109F10109F1D1B3E46D10083647
:102AB000EDE70D9B0E9AFB1A1A440C9B0E92012116
:102AC000204603EB0A0502F039F90C9B0D97D3441D
:102AD0000646002B3FF488AB0C9A5A451346A8BF14
:102AE0005B46D21AED1A0C92ABEB030BFFF77CBBE3
:102AF0000099204601F0ECFF0B9BDDF81CB05F4213
:102B0000002E7FF409ACFFF7F0BA1695AA460B9594
:102B100049E4049B002B7FF4A1AEDDE90412C2F36B
:102B20001303002B00F04A810E9199E6716820464C
:102B300001F08EFF0546002800F08B8133690233D7
:102B40009A0006F10C010C30FDF7BCFD294601226C
:102B5000204602F037FA804694E5009C02460B4678
:102B600005F0F4F9089FDDE90223013782468B4620
:102B70003E4605F031FE48B9DDE90223504659468C
:102B800005F002FE20B118F0010F01D0079AECE425
:102B9000AB46FFF7AABA9DED007B4FF002098DED21
:102BA000107B1DE4079B01331093DDE90056DDE93E
:102BB00002232846314605F0A9FC05F02DFE80468B
:102BC00005F010FBDDE9022305F076FB02460B461B
:102BD0002846314605F0B8F9079A109D08F13003F0
:102BE000BAF1010F13707FF44BAAB7E7089FCDF835
:102BF00024B0354601374646FFF765BB0D9E002ED3
:102C00007FF4B8AE0C9DFFF7F7BADDE91A23DDE9D2
:102C1000180105F051FB079B83F80080179B012BDF
:102C2000CDE9120123D0079B179ADDF8408003EB12
:102C30000209314B00223046394605F03DFB0F4674
:102C4000064605F0E9FD054605F0CCFA30350246AA
:102C50000B463046394605F077F908F8015BC84560
:102C600006460F46E5D1109B5D1E179B1D44DDE90E
:102C70001289224B00224046494605F067F9324648
:102C80003B4605F08BFD002840F0938042464B46C2
:102C90001A49002005F058F932463B4605F09CFDE4
:102CA00080B91F9B002BFFF6E7AD089B0E2B3FF76B
:102CB000E3AD1C9B089A03EBC20797ED007B8DEDFB
:102CC000027B72E7AB46013D1BF8013C302BF9D08B
:102CD0001D9F0137FFF709BA9DED007B4FF00209F8
:102CE0008DED107BFFF796BB00001C4000001440E8
:102CF00080BE020870BF0208000024400000E03FD0
:102D0000BAF1000F3FF472AE169D002D7FF756AC5E
:102D1000089B013B304639461D930022524B05F07B
:102D2000CBFA024616460F4609F10100CDE91067BD
:102D300005F058FA32463B4605F0BEFA4B4B0022EE
:102D400005F004F917950646A1F15077FFF785BB0A
:102D50000136312310E4AA46089F079A39233546E5
:102D60000AF8013B01374646FFF7BEBADDF81CB052
:102D700031230BF8013B0021204601F0A9FE089FFA
:102D80000237FFF7B2B9CDF824B0F3E4384B394835
:102D9000002240F2AF11FDF75DFD002BCDF824B00D
:102DA0003FF7D6ACE6E4109C1D9FAB460137FFF71A
:102DB0009CB91D9E079A0136FFF7D7BB059B23F0F0
:102DC00000431B0D1B05002B3FF449AD01230135CA
:102DD0000BF1010B0E9343E57FF4CCAC19F0010F1E
:102DE0007FF4C2ACC6E4149B4BBB012316939A46F6
:102DF0000B9341E5B9F1390FCDF824B0ABD0002FDA
:102E00003FF7B6ACB6E45346FFF7DBB9029A022AA5
:102E100003DC089F9A46FFF72DBA0895DDF858A005
:102E2000D5E4029A0895022AF8DC9A461CE44FF091
:102E30000209FFF7EFBA00217960FFF7A4BA149BEB
:102E40000B939A4616932EE50B4B0A48EF21FDF79C
:102E500001FD074B07482A4640F2EF21FDF7FAFC37
:102E6000064B0793FFF718B80000244000001C40F1
:102E7000E8D70208BCD70208A4D7020894D70208F2
:102E800038B50D46084C8446114628461A4600239C
:102E90002360654606F084FF431C00D038BD2368DC
:102EA000002BFBD02B6038BD1C060020002950D021
:102EB00038B551F8043C0C1F002BB8BFE418054688
:102EC00000F0A4FB274A13682BB1A3420CD9216858
:102ED000601883422CD0636028461460BDE83840F7
:102EE00000F096BBA3420FD81A465B68002BF9D1BD
:102EF00011685018844217D02CD363605460284660
:102F0000BDE8384000F084BB11685018A04214D0CE
:102F100020D8216860188342EFD118685B680844A4
:102F2000C4E900035460EAE723680B441360E6E752
:102F300018685B6808442060CDE720680144501899
:102F400083421160DBD1D3E900040144C2E90014DB
:102F5000D5E770470C232B602846BDE8384000F0C9
:102F600057BB00BF1806002010B4034CD4F8E04053
:102F7000A4465DF8044B60475000002049B1FF2A89
:102F800002D80A70012070478A2303604FF0FF3097
:102F900070470846704700BF38B5074D0022044609
:102FA00008462A6006F0CCFE431C00D038BD2B68D2
:102FB000002BFBD0236038BD1C060020024B0146CD
:102FC0001868FEF711BE00BF00000020024B01464A
:102FD0001868FFF76BBF00BF0000002038B50D4632
:102FE000084C8446114628461A460023236065464D
:102FF00006F0CEFE431C00D038BD2368002BFBD06A
:103000002B6038BD1C0600200000000000000000FE
:1030100000000000000000000000000000000000B0
:1030200000000000000000000000000000000000A0
:103030000000000000000000000000000000000090
:1030400030B490F800F020F007016FF0000C10F0A1
:10305000070491F820F040F048804FF000046FF032
:103060000700D1E9002391F840F000F1080082FA4E
:103070004CF2A4FA8CF283FA4CF3A2FA8CF34BBB19
:10308000D1E9022382FA4CF200F10800A4FA8CF292
:1030900083FA4CF3A2FA8CF3E3B9D1E9042382FA60
:1030A0004CF200F10800A4FA8CF283FA4CF3A2FA75
:1030B0008CF37BB9D1E9062301F1200182FA4CF2AD
:1030C00000F10800A4FA8CF283FA4CF3A2FA8CF314
:1030D000002BC6D0002A04BF04301A4612BAB2FA36
:1030E00082F200EBD20030BC7047D1E9002304F03B
:1030F0000305C4F100004FEAC50514F0040F91F870
:1031000040F00CFA05F562EA05021CBF63EA05030C
:1031100062464FF00004AAE7830730B546D0841812
:10312000844604E003F8011B9D0704D09C46A44597
:103130006346F7D130BD013A0244A2EB0C02032AE8
:1031400029D9CCB204EB04240F2A04EB04442FD970
:10315000A2F1100C2CF00F0C03F11005AC44C3E9E4
:103160000044C3E9024410336345F8D112F00C0F58
:1031700002F00F0E18D02EF0030C9C44AEF10405A3
:103180001A4642F8044B6245FBD125F00304043390
:103190000EF003022344002ACCD0C9B21A4403F82B
:1031A000011B9342FBD130BD7246F4E70346C6E7EC
:1031B0009646E0E78AB330B540EA0104A4078646A4
:1031C0000B4617D1032A07D814E0043A23D01CF089
:1031D000803F20D1032A26D9DEF80040194653F853
:1031E000045BA4F1013CAC4270462CEA040C0EF1E5
:1031F000040EEAD003780C78013AA34208BF1218F3
:1032000007D00CE06BB110F8013F11F8014FA34259
:1032100005D19042F6D1002030BD10467047181BF2
:1032200030BD184630BD70461946E3E72DE9F0473A
:10323000DFF8749007460E46904601F0A7FAD9F8D9
:1032400000504DB133781C466BB1344602E014F89F
:10325000013F3BB13D2BFAD1384601F099FA0020ED
:10326000BDE8F087A41B28680028F5D02246314627
:10327000FFF7A0FF28B92868035D3D2B00EB040A87
:1032800004D055F8040F0028F0D1E5E7D9F8003054
:10329000EB1A9B103846C8F8003001F079FA0AF1B1
:1032A0000100BDE8F08700BFC801002000B583B071
:1032B00001AAFFF7BBFF03B05DF804FB2DE9F04165
:1032C000144641B30AB306460D4603F0E1FB8442BF
:1032D000074602D8B4EB500F13D821463046FEF70C
:1032E00083FC804650B1BC422246294628BF3A465C
:1032F000FDF7E8F929463046FFF7D8FD4046BDE81E
:10330000F081A8464046BDE8F081A046FFF7CEFD1B
:103310004046BDE8F081BDE8F0411146FEF764BCCF
:103320009368013B002B936011DA10B49469A342B7
:1033300009DB0A2907D01368581C10601970084669
:103340005DF8044B70475DF8044B03F0FBBE136857
:10335000581C106019700846704700BF9BB1F8B543
:10336000134406460F46541E5D1E01E0AC4208D0D1
:1033700014F8011F3A463046FFF7D2FF431CF5D13F
:10338000F8BD0020F8BD0020704700BF936810B55D
:1033900014461BB918460023636010BD04F0B0F951
:1033A0000023A3600023636010BD00BF2DE9F04F30
:1033B0009FB00F4692461C46039018B1036A002B3B
:1033C00000F00881BB891D0740F18B803B69002B11
:1033D00000F0878000230B9343F22003ADF83130D7
:1033E0009AF800307D4D05940126002B72D0D1460D
:1033F00003E019F8013F002B7DD0252BF9D1B9EB63
:103400000A0B7BD199F80030002B63D000234FF0DA
:10341000FF32CDE9072309F10109069309938DF8DD
:103420005B301C9304E006FA03F313430693A146B2
:103430004C46052214F8011B284600F091F9A246DB
:10344000069A431B0028EED1D00644BF20238DF8F6
:103450005B30110799F8001044BF2B238DF85B30C7
:103460002A2961D1059B1968043300290593C0F20C
:103470008D80099199F801102E296BD058480322AC
:1034800000F06EF940B1564A069B801A40228240F5
:1034900013430AF1010A06931AF8011B51488DF8EB
:1034A0003010062200F05CF9002875D04E48002844
:1034B00065D005AA00924D4B03983A4606A9FDF740
:1034C00011FB421C06D00B9B03440B939AF800306F
:1034D000002B8CD1BB895B060AD40B981FB0BDE8CA
:1034E000F08F0398394600F0BDF800283FF472AF22
:1034F0004FF0FF30F2E7B9EB0A0BEBD00AF1FF38DF
:103500004446039818F8011F3A46FFF709FF0234B2
:103510000130A4EB0A04DDD0A345F1D80B9A99F849
:1035200000305A440B926FE7A1F13002092A88BF9C
:10353000CA46A1D8099B00E00134217803EB83033C
:1035400002EB4303A1F13002092AF5D92E29099390
:10355000A24693D19AF801102A2926D1059B9AF800
:1035600002101A6807920433002A0AF10200059338
:10357000B8BF4FF0FF338246B8BF07937EE7059B85
:10358000073323F00703083305939CE7494242F0D1
:103590000202099106926DE705AA0092134B039867
:1035A0003A4606A900F0ACFF8BE7A1F130020023F8
:1035B000092A07930AF1010A3FF660AF1AF8011FC2
:1035C00003EB830302EB4303A1F13002092AF5D98F
:1035D000079353E701F0C8F9F4E600BF80D702086B
:1035E00088D702088CD70208E50A00085D33000876
:1035F00010B4054C8446134620685DF8044B0A4617
:103600006146FFF7D3BE00BF00000020704700BF37
:10361000704700BF014B1868704700BF00000020D2
:103620000CB400B583B004AB53F8042B0193FFF73F
:10363000BDFE03B05DF804EB02B070470EB410B5E8
:1036400083B005AB064C53F8042B01930146206868
:10365000FFF7ACFE03B0BDE8104003B0704700BFF9
:103660000000002038B53D4B1B6805460C4613B1E1
:103670001A6A002A5AD0B4F90C3019070BD52269FE
:103680009AB113F0010221D19B075ABF6369A3606D
:10369000A260002038BDDA0658D558071CD422692C
:1036A00043F00803A381002AEBD1990528D5180619
:1036B00003F0800124D4D80741D49D073CD5A260F3
:1036C0000029E6D043F04003A38144E0636900226F
:1036D0005B42A260A361DCE7616B51B104F144027B
:1036E000914204D02846FFF7E1FBB4F90C300022E8
:1036F000626322690021C4E9002123F02403CFE79B
:103700002146284603F016FEB4F90C30226913F066
:1037100001010FD0616900204942A060A161002A27
:10372000B7D103F080010029B3D0CBE7184601F0F0
:103730001BF9A0E7980700D46169A160EFE7606911
:10374000A2604042A0610029A3D0BBE7092243F058
:1037500040032A60A3814FF0FF3038BD00000020F5
:1037600001F0FF01102A2BDB10F0070F08D010F832
:10377000013B013A8B422DD010F0070F42B3F6D136
:10378000F0B441EA012141EA014122F007047FF04F
:1037900000070023F0E80256083C85EA010586EAA6
:1037A000010685FA47F5A3FA87F586FA47F6A5FAE2
:1037B00087F68EB9EED1F0BC01F0FF0102F00702EE
:1037C00032B110F8013B013A83EA010313B1F8D199
:1037D0000020704701387047002D06BF354603387A
:1037E000073815F0010F07D1013015F4807F02BFB3
:1037F000013015F4C03F0130F0BC0138704700BF04
:103800002DE9F04F0C4687B0896805934B1EB3F540
:10381000AE7F0646904640F2A38127466FF4AE7015
:1038200057F81C3B01EB000C40F25D11A16043F422
:10383000F0634FF0000ACDE902AA236043463D46FB
:10384000B046D346D146CDF804A00A46CDF810C004
:103850001E4633681878A0F12B034E2B70D8DFE892
:1038600013F0D2006F00D2002C016F004F00530004
:1038700053005300530053005300530053005300B0
:103880006F006F006F006F006F006F006F00250109
:103890006F006F006F000A0103016F006F00F400FA
:1038A0006F006F006F006F00E5006F006F006F002A
:1038B0006F006F00DF006F006F006F006F00D900B6
:1038C0006F006F006F006F006F006F006F002501C9
:1038D0006F006F006F000A0103016F006F00F400BA
:1038E0006F006F006F006F00E5006F006F006F00EA
:1038F0006F006F00DF006F006F006F006F00D90076
:103900002368D90500F11F811BEB0A0318D19A46E1
:10391000236823F4C0732360D34605F8010BA26823
:10392000013A2369A260013323617368013B002BD4
:10393000736040F3CC80336801333360002A88D150
:10394000334646469846B9F1000F03D0236823F466
:10395000807323600BF1FF3BBBF1010F40F2D98074
:103960000AF1FF33062B21D8BAF1020F40F24B8146
:10397000BAF1030F1AD0AAF1040A5FFA8AF26FEAC9
:10398000020AAA44AB4604951546D4F87C311BF8CC
:10399000011D4246304698472369D34503F1FF3362
:1039A0002361F2D12A46049D013DAD1A2368D90551
:1039B0001A4620D55B0500F13781236915F8011CF3
:1039C000013B6529236105F1FF3A0DD045290BD054
:1039D000D4F87C31424630469847236915F8021CDA
:1039E000013B2361A5F1020A4246D4F87C313046FE
:1039F00098472268554612F0100200F0B980002066
:103A000007B0BDE8F08F2368190699D523F080032D
:103A1000236082E7BAF1070F92D14FF0080A7CE7E2
:103A2000BAF1060F8CD14FF0070A76E7BBF1000F11
:103A300040F08280B9F1000F00F0BA80BAF1010FB6
:103A40000DD0BAF1040F0AD07AE7BAF1000F4BD0CB
:103A5000BAF1030F03D0BAF1050F7FF471AF0AF189
:103A6000010A5FFA8AFA58E7BAF1020F7FF468AFE9
:103A70004FF0030A51E7236803F4A062B2F5806FA8
:103A800005D059057FF55CAFB9F1000F36D09A0526
:103A900004D4019AA9EB0202CDE9025223F4F063A7
:103AA00043F4C07323604FF0000936E7BBF1010F08
:103AB0007FF446AF4FF0020B2FE723689A057FF59E
:103AC0003FAF23F420732360CDF8049025E7D4F8AA
:103AD000803131464046984700287FF431AFA268D4
:103AE000002A7FF4B6AE2BE7B9F1000F6DD1236841
:103AF00003F4E062B2F5E06F00F0C9800BF1FF3B28
:103B00003346BBF1010F46464FF0000998463FF699
:103B100027AFAF420CD2D4F87C3115F8011D4246D4
:103B2000304698472369BD4203F1FF332361F2D148
:103B3000012007B0BDE8F08FBBF1020F7FF47EAF2C
:103B40004FF0030BE9E623F080032360049B09F1A7
:103B50000109002B3FF4E3AE049B013B0493E0E634
:103B600027464FF0000C57F81C3B43F4F06360E627
:103B70002A70236803F4C063B3F5806F33D0039BCE
:103B8000002B6FD139463046002202F0C9FD05985E
:103B900022680368950757EC106B03F1040129D5DF
:103BA00001601B6883ED000BE3680133E36026E7E7
:103BB000236803F4E062B2F5E06F7FF43FAF23F4D3
:103BC000F06323604FF0010BA7E633464646984664
:103BD00023680BF1FF3B23F48073BBF1010F2360DB
:103BE0003FF6E5AE95E7019B4B45CBD0A3EB090231
:103BF00002953FE012F0040F059A116024D01B6873
:103C000083ED000BD0E7BD4292D9D4F87C3115F892
:103C1000011D4246304698472369BD4203F1FF33F8
:103C20002361F2D1012084E7BD4281D9D4F87C31EF
:103C300015F8011D4246304698472369BD4203F1FD
:103C4000FF332361F2D173E71D6832463B463046AD
:103C5000394604F0CBFD00BB3046394604F024FE63
:103C60002860A1E702990A230131304603F02EFDB6
:103C7000039BC21A029904F26F13994224BF04F500
:103C8000B77302930298084903F0EAFA7AE723F43B
:103C9000F06323604FF0010A3FE6044800F082FB26
:103CA00085ED000A80E700BF0CD80208A0C2020818
:103CB00038B5C46B0CB1002038BD80210546FDF736
:103CC00093FF0246E86330B1031F7C3243F8044F90
:103CD0009342FBD1EFE74FF0FF3038BD30B51F29DD
:103CE00083B0054608D8C36B0C465BB153F824007B
:103CF00043F8242003B030BD162303604FF0FF309B
:103D000003B030BD80210192FDF76EFF019AE86398
:103D100003460028F2D0011F00F17C05002041F885
:103D2000040FA942FBD1E1E71F2938B505461ED88B
:103D3000C26B0C466AB152F8213053B1012B06D048
:103D4000591C10D0002142F824102046984700202A
:103D500038BD284601F034FC224601462846BDE81D
:103D6000384001F017BC16230360012038BD16232C
:103D700003604FF0FF3038BD1F2929D8C26B38B51A
:103D80000C4605469AB152F8243053B1591C0CD058
:103D9000012B08D00025204642F824509847284699
:103DA00038BD012038BD032038BD022038BD802138
:103DB000FDF71AFF0246E86338B1031F00217C308B
:103DC00043F8041F8342FBD1DDE74FF0FF3038BDDD
:103DD0004FF0FF30704700BF38B5134B1F281D68E8
:103DE0001DD8EA6B044662B152F820304BB1012B6A
:103DF00005D0591C0FD0002142F820109847002010
:103E000038BD284601F0DCFB224601462846BDE8C5
:103E1000384001F0BFBB16232B60012038BD1623AC
:103E20002B604FF0FF3038BD00000020114B1F28E1
:103E300070B51E6808D8F36B04460D464BB153F8B5
:103E4000240043F8245070BD162333604FF0FF3038
:103E500070BD80213046FDF7C7FE0346F0630028A1
:103E6000F4D0021F00217C3042F8041F8242FBD1B3
:103E7000E5E700BF0000002038B50B4B1D68EC6B78
:103E80000CB1002038BD80212846FDF7ADFEE86367
:103E900038B1031F00F17C0243F8044F9342FBD179
:103EA000EFE74FF0FF3038BD0000002038B5164B6B
:103EB0001F281D6825D8EA6B04469AB152F82430B1
:103EC00053B1591C0CD0012B08D00025204642F8D4
:103ED00024509847284638BD012038BD032038BDFE
:103EE000022038BD80212846FDF77EFE0246E863A9
:103EF00038B1031F00217C3043F8041F8342FBD1FB
:103F0000DCE74FF0FF3038BD0000002038B54B1C17
:103F10001AD09389144623F020035268A381636B5F
:103F2000CDB2A3B1A36B934209DD23685A1E226070
:103F300003F8015C636801336360284638BD21469D
:103F400003F082FA0028F0D04FF0FF35F5E723693F
:103F500021682BB18B4203D211F8013CAB420ED049
:103F60002346C4E90F1204F1440003226063A263F4
:103F700003F8465F0122C4E90032284638BD013902
:103F80000132C4E90012D8E710B50C46496B69B19B
:103F900004F14403994201D0FEF788FF236C63606B
:103FA0000020606313B1E36B236010BDA289236915
:103FB000002142F020026160A2814FF0FF30F3E760
:103FC0002DE9F04FADF5277D44AD174603931378E7
:103FD0000022CDE94722874AC5F87C210DF1100B5C
:103FE000854AC5F880210DF10C0AC5F814B09BB1C3
:103FF000DFF80C9219F8032012F0080280460C46F4
:1040000007F101062ED1252B48D06268002A08DD71
:1040100022681178994212D0E8680DF5277DBDE835
:10402000F08FD5F880210193214640469047019BAF
:10403000002840F00881226811789942ECD1636829
:10404000013B63602B6901320133226037462B61EB
:104050003B78002BE0D019F8032012F0080207F19A
:104060000106D0D062680EE023681A7819F80220A1
:10407000110703F101030FD562682969013AC4E908
:10408000003201312961002A21464046ECDCD5F896
:10409000803198470028E7D03746D9E7AA602A60E0
:1040A00079782A2903D110222A60B978BE1CA1F19F
:1040B0003002092A0DD8002202EB820201EB4201F4
:1040C000A1F13002AA6016F8011FA1F13000092801
:1040D000F2D94A4801930322FFF742FB019B38B112
:1040E000464A2968801A012282400A4301362A6022
:1040F000374617F8012B782A00F28480DFE812F0A7
:10410000A900820082008200820082008200820078
:10411000820082008200820082008200820082008F
:10412000820082008200820082008200820082007F
:10413000820082008200820082008200820082006F
:1041400082008200820082008200170182008200C9
:10415000820082008200820082008200820082004F
:10416000820082008200820082008200820082003F
:10417000820082008200820082008200820082002F
:1041800082008200820082008200CA00CA00CA0047
:10419000820082008200820082008200820082000F
:1041A00082008200820082008200820082008200FF
:1041B000CD0082008200E70082008200820082003F
:1041C000820082008200F200E200CA00CA00CA0037
:1041D0008200E4008200820082008200F90009016E
:1041E0000D018200820014018200E2008200820040
:1041F000CD0000BF0D3F0008893F000888D70208A6
:104200006DBD02080323AB610A236B606368002B5A
:1042100050DD2B68580625D5AB69022B40F3898009
:10422000042B40F38D804A4B002B3FF411AF5346D3
:10423000224629464046FFF7E3FA01283FF4ECAE58
:1042400002287FF405AFE86818B1A3895B067FF503
:10425000E4AE4FF0FF30E0E6D5F8803140469847B5
:104260000028F0D12268137819F803301907D3D544
:1042700063682969013B481C002B21462861636063
:1042800002F10102E8DD2260137819F80330190702
:10429000C2D5EDE70523AB61B8E72B6843F40073A3
:1042A0002B6010236E2A6B6035D80323AB616368E3
:1042B000002BAEDCD5F880312146404698470028D7
:1042C000A7D0C0E70A23EDE700236B60EDE739468E
:1042D000584600F071FB2B6843F040032B60074603
:1042E0000123E3E72B6843F040032B600023AB611D
:1042F0008CE72B68DA063FF5ABAEDAF800202969C7
:10430000101DCAF80000DB0713684CBF1980196044
:104310009EE608236B600423C8E72B6843F4087308
:104320002B6010236B60F6E70223AB616EE73E461D
:104330006BE6534622462946404603F053FB7CE792
:10434000534622462946404603F0B4FB75E700BFBA
:104350000138000870B50F4B0F4DAB42A3EB0506BB
:1043600007D0B610002455F8043B01349847A64204
:10437000F9D827F08BFC094D094B5E1BAB424FEA85
:10438000A60606D0002455F8043B01349847A642FF
:10439000F9D870BD28B2030828B2030828B2030870
:1043A0004CB203089FED010A704700BF0000C07FB8
:1043B00038B50D46084C8446114628461A46002357
:1043C0002360654618F086FD431C00D038BD236885
:1043D000002BFBD02B6038BD1C0600202DE9F84FC8
:1043E00092461F460A698B68DDF828909A42B8BF4A
:1043F0001A46CAF8002091F843300C46064613B11D
:104400000132CAF80020226891065CD5DAF8003043
:104410000233CAF80030226812F0060F11461DD18F
:10442000E1689942D8BF114618DD4FF0000804F149
:10443000190B05E0E568DAF80030ED1A45450CDDAA
:1044400001235A4639463046C847013008F1010871
:10445000F0D14FF0FF30BDE8F88F216894F8433079
:10446000003B18BF01238A060AD5E1181A463020FE
:1044700081F84300224494F8451082F84410023336
:1044800004F1430239463046C8470130E1D0236881
:10449000A268216903F00603042B1BD08A4224DDA5
:1044A0004FF00008521A90441A34002501E04545A7
:1044B0001BDA0123224639463046C847013005F150
:1044C0000105F4D1C5E712F0060F11D0003B18BF6B
:1044D0000123D5E7DAF80000E3688A42A3EB000382
:1044E00023EAE378DEDC002BDEDC0020BDE8F88F79
:1044F000E168DAF800309942D8BF114695DCADE7A3
:104500002DE9F047174684B00A7E0C9D0C460646FE
:10451000984601F1430C002A35D0A2F15803D9B2D4
:10452000202969D8202B67D8DFE813F0E500660062
:10453000660066006600660066006600660066004B
:104540006600AB00700066006600660066007000E2
:10455000660066006600660021008200C5006600F5
:104560006600B5006600820066006600EB002B68FE
:1045700022686169181D286010061B6802D4520663
:1045800000F1DF8019600023E1462361CDF800804F
:104590003B4603AA21463046FFF720FF013020D0DA
:1045A00023694A4639463046C047013019D023684E
:1045B000E068DDF80C909B0718D5484516DD00250E
:1045C00004F1190A04E0E068A0EB0903AB420DDD39
:1045D0000123524639463046C047013005F10105F6
:1045E000F1D14FF0FF3004B0BDE8F0874845B8BFC7
:1045F000484604B0BDE8F08784F84220012004F169
:1046000042090023206184F84330BFE72A68236809
:10461000111D1806296002D4590600F19480126811
:104620001146002AC0F2938056484FF00A0E13E05C
:1046300020682B6810F0800F53F8041B02D140064D
:1046400048BF89B26F2A4F482B6000F08F804FF02F
:104650000A0E002384F843306268A260002A52DB0D
:10466000236823F00403236000294CD1002A40F082
:104670008280E146BEF1080F56D0ACEB09032361FE
:1046800084E72B681A6804332B6004F1420984F82C
:1046900042200120B5E72B686268191D2960D3F814
:1046A000009000214846FFF75BF8002861D0A0EB9E
:1046B00009006060A5E7236843F0200323607822A7
:1046C000314884F845202A6813F0800F52F8041B03
:1046D00003D113F0400F18BF89B22A60DA0744BF34
:1046E00043F02003236019B9236823F020032360DB
:1046F0004FF0100EADE7582384F845302148236869
:10470000E1E72368DBE77546E146B1FBF5F305FB1E
:10471000131A0A46AA4210F80A1009F8011D194690
:10472000F3D2BEF1080FA8D12368DD07A5D56268D2
:1047300023699A42A1DC302309F8013C09F1FF39D1
:104740009BE719801FE7B2F900100A4669E7626823
:10475000A2602D20002A84F8430002DB23F004032A
:1047600023600A2507484942AE46CDE74FF0080EC0
:104770006FE7606845E7037884F8423004F1420946
:1047800078E700BF24C1020814D80208704700BFB0
:10479000704700BF00207047024A0349034802F0F7
:1047A00081BD00BFBC0100200D6A0008040000208C
:1047B0000C4B4168994210B5044601D002F026F92D
:1047C000A168094B994202D0204602F01FF9E16826
:1047D000064B994204D02046BDE8104002F016B9BD
:1047E00010BD00BF2006002088060020F006002033
:1047F000002070472DE9F8432A4C2B49DFF8BC9084
:10480000DFF8BC80294FC4F83811002504230822A2
:10481000294604F15C00264EE360C4E90055C4E972
:104820000455A5606566A561FEF776FC214B6367BC
:104830000822294604F1C400C4E90849C4E90A87EA
:10484000C4E91A55C4E91E552567C4F8CC50C4F80C
:1048500080502663FEF760FC174BC4F8DC30294615
:1048600004F16803082204F59670C4F88830C4E99E
:104870002398C4E92576C4E93455C4E93855C4F809
:10488000D850C4F83451C4F8E850FEF745FC04F1A0
:10489000D003C4E93D98C4E93F76C4F8F030BDE8E0
:1048A000F88300BF2006002099470008BD170008C4
:1048B000E117000809000100120002005517000866
:1048C0007D170008F8B5254BD3F838310646002B84
:1048D0003CD0234FD7E90134013B04D51DE05A1CDD
:1048E00004F1680419D0B4F90C50013B002DF6D145
:1048F0001C4BE360C4E90155C4E9045565662560B5
:10490000A5610822294604F15C00FEF705FCC4E914
:104910000D55C4E912552046F8BD3D680DB12F462E
:10492000D8E74FF4D6713046FDF75EF9044680B102
:104930000423C0E900530C302946A0604FF4D07224
:104940002546FEF7E9FB3C602F46C3E7FFF752FF21
:10495000BFE70C2338603360DDE700BF200600208E
:10496000BC0100200100FFFF036A03B17047044B44
:10497000044AD3F838310262002BF7D13AE700BF7E
:1049800020060020B1470008704700BF704700BFF5
:10499000024A0349002002F085BC00BFBC01002090
:1049A00095470008024A0349002002F07BBC00BF83
:1049B000BC010020F147000870B50C785E2C8646DB
:1049C00024D00023481C9C46002263F3070263F3B3
:1049D0000F2263F3174263F31F620EF58071734673
:1049E00043F8042B8B42FBD174B18CF001010EF81B
:1049F0000410451C15F8013C2D2B0ED05D2B0AD060
:104A00001BB11C462846F2E7013870BD01234C78E3
:104A1000881C9C46D8E7284670BD90F801C0BCF1C0
:104A20005D0FEED06445ECDC661C02300EEB060236
:104A300002F8011BA2EB0E03013B9C45F8DCACEB3A
:104A40000403013B6445A8BF002302359C19D1E74C
:104A500070B5C66905460C465EB1F368A3B153F85C
:104A60002400E8B1026843F824200023C0E903339E
:104A700070BD1020FEF7A2FA0646E861E8B10023F7
:104A8000C0E90033C0E9023321220421284602F0A4
:104A90003DFCEB69F060DB68002BE0D1002070BDCD
:104AA000012101FA04F6721D9200284602F02EFC44
:104AB0000028F3D0C0E90146D7E7034B034832464C
:104AC0006B21FBF7C7FE00BFA4D7020828D8020855
:104AD00070B5C66905460C464EB13CB1EB696268DB
:104AE000DB6853F82210216043F8224070BD10208B
:104AF000FEF764FA0246E86120B1C0E90066C0E949
:104B00000266EAE7024B03488F21FBF7A3FE00BFD2
:104B1000A4D7020828D802082DE9F0410D690746FC
:104B20000E461C4601F1140E0020DEF800108BB278
:104B300002FB03434FEA134C090C02FB01CC01308A
:104B40009BB203EB0C4385424EF8043B4FEA1C44F6
:104B5000EBDC3CB1B368AB4207DD06EB8503013506
:104B60005C6135613046BDE8F081716838460131DD
:104B7000FFF76EFF804690B13269023206F10C01F8
:104B800092000C30FBF79EFD314638464646FFF753
:104B90009FFF06EB850301355C613561E2E7034B5E
:104BA00003484246BA21FBF755FE00BFE8D702088A
:104BB00028D802082DE9F8431746284A1E4608332C
:104BC0000C46092E82FB03124FEAE3730546C3EB42
:104BD00062033ADD4FF0010C00214FEA4C0C6345B3
:104BE00001F10101F9DC2846FFF732FF014670B3FD
:104BF000089B4361092F4FF00103036112DC0A3463
:104C00000927BE420BDDF61B264414F8013B0A229D
:104C1000303B2846FFF780FFB4420146F5D10846F5
:104C2000BDE8F88304F1090804EB0709444614F8C9
:104C3000013B0A22303B2846FFF76EFF4C450146F8
:104C4000F5D1B844A8F10804DBE70021CBE70A4618
:104C5000034B0448D321FBF7FDFD00BF398EE33839
:104C6000E8D7020828D80208B0F5803F034636BFCF
:104C7000030400201020B3F1807F3CBF1B020830EA
:104C8000B3F1805F06D3B3F1804F0FD29A0012D4F4
:104C9000033070471A01B2F1804F00F1040006D2D0
:104CA0009B0108D45B00F3D4202070471A46002AE9
:104CB000FBDB013070470230704700BF03685907C3
:104CC000024607D0D8071DD499072AD55B08136080
:104CD0000120704799B279B91B0CD9B2A1B110204B
:104CE000190701D104301B09990712D0D90701D443
:104CF00001305B0813607047D9B241B1180718D171
:104D00000420F0E70020704718201B0AE8E708207D
:104D1000FBE713F0040F4FEA930106D002300B4675
:104D2000E8E79B08136002207047DB0804D12020CD
:104D30007047DB080320DDE70330DBE710B50C46E6
:104D40000121FFF785FE024618B10123C0E90434B2
:104D500010BD034B034840F24511FBF77BFD00BF3C
:104D6000E8D7020828D802082DE9F04FD1F81080C2
:104D70001569A84585B00E46924605DB2A4653467E
:104D800045468A4690461E46DAF80830DAF804109E
:104D900005EB0804A342B8BF0131FFF759FE844672
:104DA000002800F08C8000F1140707EB840E774593
:104DB00005D23B46002243F8042B9E45FBD814360F
:104DC00006EB88080AF11409464509EB850567D208
:104DD000A5EB0A03153B0AF1150A23F00303AA45C4
:104DE00094BF9B464FF0000BCDF808E00394AE460D
:104DF000E24605E0090C2BD1B04507F104074CD978
:104E000056F8041B8DB2002DF4D0CC463C4600234E
:104E100001965CF8040B216886B28AB2000C05FB8F
:104E20000622090C1A4405FB001101EB124192B253
:104E300042EA0142E64544F8042B4FEA1143E8D820
:104E400007EB0B02019E536056F8041C090CD3D0EB
:104E50003B68002248461D463C469446028801FBBA
:104E600002C202EB15429BB243EA024344F8043B00
:104E700050F8043B25684FEA134CABB201FB0C33EE
:104E800003EB124386454FEA134CE7D807EB0B02BE
:104E9000B045536007F10407B2D8DDE902E4D44617
:104EA000002C02DC05E0013C03D05EF8043D002B41
:104EB000F9D06046CCF8104005B0BDE8F08F034B48
:104EC000034862464FF4B171FBF7C4FCE8D702080F
:104ED00028D802082DE9F04312F0030383B01446EA
:104EE000074634D10E46A4102CD0FA69002A37D0D8
:104EF0009568002D3FD004F001034FF000086410C6
:104F00003BB92868A0B1054604F001036410002BEA
:104F1000F7D031462A463846FFF726FF314681460C
:104F20003846FFF7D5FD74B128684E460028EAD10F
:104F30002A4629463846FFF717FF2860C0F8008048
:104F40000546E1E7B146484603B0BDE8F083013BC2
:104F5000184A52F823200023FFF7DEFD0646C2E779
:104F60001020FEF72BF80246F861E0B10023C0E9FB
:104F70000033C0E90233012138460192FFF768FD92
:104F8000019A054640B1012340F27121C0E9043184
:104F9000002390600360AEE7074B08482A4640F2C2
:104FA0004511FBF757FC064B044840F2B311FBF7E1
:104FB00051FC00BF70BE0208E8D7020828D80208DA
:104FC000A4D702082DE9F0470D4691462B694968A0
:104FD00003EB6218AB6808F101049C4207464FEAF4
:104FE000621A04DD5B009C4201F10101FADC3846E3
:104FF000FFF72EFD064600284AD0BAF1000F00F157
:1050000014000BDD0AF1050206EB820203460021C3
:1050100043F8041B9342FBD100EB8A00296905F198
:10502000140319F01F0903EB810129D0C9F1200EE7
:1050300084464FF0000A1A6802FA09F242EA0A02AC
:105040004CF8042B53F8042B994222FA0EFAF2D8AA
:105050004B1B153B23F0030305F11502914238BFAA
:105060000023043340F803A0BAF1000F00D14446F6
:10507000384634612946FFF72BFD3046BDE8F087FE
:10508000043853F8042B40F8042F9942F9D8EEE77E
:10509000034B044832464FF4EF71FBF7DBFB00BFD4
:1050A000E8D7020828D802080B6984460069C01AAC
:1050B00016D10CF1140C14310CEB830210B401EB7B
:1050C000830301E0944508D252F8044D53F8041DBF
:1050D0008C42F7D005D24FF0FF305DF8044B70479B
:1050E000704701205DF8044B704700BF2DE9F04F79
:1050F00013690E69F61A002E83B08946154614D13D
:1051000001F1140702F1140101EB830107EB8303A2
:1051100001E09F427ED253F8044D51F8042D944291
:10512000F7D080F08480012603E0FCDB00260D46EA
:1051300091466968FFF78CFC0146002800F08480E6
:105140002F69C660D9F8100005F1140B05F11002A3
:1051500001F1140A09F1140505EB80000BEB870E31
:10516000D0460023CDF804B0944655F8046B5CF8A3
:10517000042F1FFA86FB94B2A4EB0B041C44330CDF
:10518000C3EB124303EB2443A4B244EA0344A84212
:1051900048F8044B4FEA2343E7D82646A0EB09041E
:1051A000153CDDF804B024F0030409F11509484565
:1051B00038BF00240BEB0402043204EB0A059645C9
:1051C00005F10404104636D9AAEB0B0A00EB0A0CD1
:1051D00050F8045B13FA85F62B442D0C05EB26459D
:1051E0009BB243EA05468645CCF800604FEA25436A
:1051F000ECD80EF1FF339B1A23F00303234426B9A6
:1052000053F8042D013F002AFAD008460F6103B07D
:10521000BDE8F08F0021FFF71BFC014668B10122B9
:105220000023C0E90423084603B0BDE8F08F2B46F5
:105230004D4699467DE72B46E1E70A46064B07486F
:1052400040F23721FBF706FB0A46034B034840F2C6
:105250004521FBF7FFFA00BFE8D7020828D802086B
:1052600082B08DED000B164B019A1340A3F15073E1
:10527000002B06DD00221946104641EC100B02B04F
:1052800070475B42B3F1A07F4FEA235209DA4FF433
:105290000023134100221946104641EC100B02B0C6
:1052A0007047A2F114031E2BDABF4FF00042DA4020
:1052B000012200231946104641EC100B02B0704742
:1052C0000000F07FF8B5046900F1140606EB8404D1
:1052D000271F54F8045C2846FFF7C6FCC0F12003E2
:1052E0000A280B6033DDBE42A0F10B0119D254F83D
:1052F000080C21B3C1F120078D4020FA07F21543B5
:105300008840A4F1080145F07F538E4243F44013D6
:1053100019D254F80C1CF9400843024643EC102BF8
:10532000F8BD0B280AD005FA01F141F07F530020A7
:1053300043F44013024643EC102BF8BD002045F027
:105340007F5343F44013024643EC102BF8BDC0F1E9
:105350000B0C25FA0CF1BE4241F07F5338BF54F8D4
:10536000081C00F1150034BF21FA0CF1002105FAE8
:1053700000F0084343F44013024643EC102BF8BD01
:105380002DE9F0430E4683B0012159EC108B1546F0
:10539000FFF75EFB0446002844D0C9F30A57C9F35F
:1053A00013030FB143F480130193B8F1000313D139
:1053B00001A8FFF783FC019B63610121203021617B
:1053C0000FB3A7F233470744C0F1350037602860B8
:1053D000204603B0BDE8F08368460093FFF76EFCFB
:1053E000DDE9002330B1C0F1200103FA01F1C3402F
:1053F0000A430193002B0CBF012102216261A361CA
:105400002161002FDDD104EB8103A0F23240306036
:105410001869FFF729FCC0EB41102860204603B053
:10542000BDE8F083034B0448224640F20F31FBF7FE
:1054300011FA00BFE8D7020828D802082DE9F04386
:1054400083B0884669468146FFF73CFF01A9404684
:1054500055EC104BFFF736FFD8F81030D9F8102074
:10546000D21ADDE900315B1A03EB4213002B59EC31
:10547000108B0DDD05EB03573D4642464B4620465B
:10548000294603F043F841EC100B03B0BDE8F0836C
:10549000C3EB033309EB03518946EEE7172870B5D8
:1054A00006460CDD0A490B4D0020002422462B46FF
:1054B00002F002FF013EF9D141EC100B70BD064B2A
:1054C00003EBC003D3E9040141EC100B70BD00BF36
:1054D0000000F03F0000244070BE0208013949116D
:1054E00001F1010C116902F1140303EB81018B42FC
:1054F00000EB8C0C16D210B5A0F1040E53F8044B3F
:105500004EF8044F9942F9D8891A153921F0030150
:1055100004300844844504D9002340F8043B844502
:10552000FBD810BD844505D9002340F8043B8445D1
:10553000FBD87047704700BF03694A11934200F1DE
:10554000140009DA00EB830302E053F8042DAAB932
:105550008342FAD80020704700EB8203F8DD11F097
:105560001F01F5D010B450F8224024FA01F28A400D
:10557000944209D001205DF8044B70470120704728
:1055800053F8042D002AF5D18342F9D800205DF8A4
:10559000044B704770B50C46084D03460026204664
:1055A00011461C462E6004F0EBFB431C00D070BD7E
:1055B0002B68002BFBD0236070BD00BF1C060020B1
:1055C00004F0CEBB000000002DE9F04F2DED028B62
:1055D0009DB0894600210692189100220021CDE954
:1055E000041283464A461792904612F801ABBAF16C
:1055F0002D0F5FD801A151F82AF000BF3F580008D5
:10560000B5560008B5560008B5560008B55600084E
:10561000B5560008B5560008B5560008B55600083E
:10562000E7550008E7550008E7550008E75500086A
:10563000E7550008B5560008B5560008B5560008ED
:10564000B5560008B5560008B5560008B55600080E
:10565000B5560008B5560008B5560008B5560008FE
:10566000B5560008B5560008B5560008B5560008EE
:10567000B5560008B5560008B5560008E7550008AD
:10568000B5560008B5560008B5560008B5560008CE
:10569000B5560008B5560008B5560008B5560008BE
:1056A000B5560008B55600081B5B0008B556000843
:1056B000355B000800220792BAF1300F00F08380BA
:1056C00000230893BAF12F0F564640F22985002790
:1056D00040463D463C4618E0082CC8BF07EB87070C
:1056E00000F10100C8BF0AEB470A1790C8BFAAF132
:1056F000300790F800A0D8BFA3F13005BAF12F0F02
:1057000004F10104564640F3A98005EB8503BAF184
:10571000390F0AEB4303DFDDB1490122FDF74AFDF2
:10572000002867D11798431C1793417818460A46FA
:10573000002C40F0ED80302A08BF034640F0F4858D
:105740001946013317931A78302AF9D0C0F10100B5
:105750000144A2F13100082800F2D28101311291F6
:10576000303A98464FF0000A012405EB850502EB1C
:1057700045050021013317931878A0F13002092A5A
:1057800001F1010600F29884002A00F0A88712981F
:10579000012E3044129000F0A08704F1010C604605
:1057A00006E075000130061B013EB14240F3A784BC
:1057B000461E082E05EB8506F3DD1028DCBF07EB3F
:1057C00087077F00EEE798F8012002F0DF02582AF1
:1057D00018BF434600F033840133179393F800A0B9
:1057E000BAF1300FF8D09846BAF1000F0ED001236D
:1057F000089367E7BAF1650F19D0BAF1450F16D0D3
:10580000002C31D1089B002B00F0C0809FED728BE3
:10581000069A0AB1179B1360079BB3B118EE901A52
:1058200018EE102A01F1004343EC182B0DE0002C78
:105830007CD1A2461294089B002B40F0FF829FED82
:10584000668B069B0BB1C3F80090B0EE480AF0EEF1
:10585000680A1DB0BDEC028BBDE8F08F60490122E3
:10586000FDF7A8FC00284FD0284602F0ABFC092C1D
:10587000CDE9040140F3E7820023102CA1460993EF
:10588000A8BF4FF01009A2460C931293554B03EB9F
:10589000C90353E9122302F00FFD024638461646AB
:1058A0000F4602F08FFC02460B463046394602F0A6
:1058B0004DFB0F2CCDE9040100F3B280099B002BB6
:1058C00000F0C182099B40F3A782162B40F37C8431
:1058D000099AC4F125039342C0F2A280414DC4F15C
:1058E0000F0405EBC401DDE90423D1E9000102F056
:1058F000E3FC099B1C1B05EBC405D5E9002302F062
:10590000DBFC41EC180B83E7179A531C1793517873
:10591000A1F13000092800F2E8800246002800F0DA
:10592000C4860121A246A4461291EAE30021179BF6
:105930001291A2468E465A1C17925E782B2E00F0CA
:10594000D1802D2E00F0C88000220992A6F1300CE3
:10595000BCF1090F39D8302E179A40F0F08001328F
:1059600017921678302EFAD0A6F13100082840F2AE
:10597000E48000220C92002C3CD1089A0A437FF468
:1059800045AFBEF1000F40F053849946692E00F0F8
:105990002E8400F32784492E00F029844E2E7FF4B4
:1059A0004EAF114917A802F099F900283FF447AF0C
:1059B000179B1B78282B00F087850C4802F090FA83
:1059C000B0EE408AF0EE608A22E7002217930C9234
:1059D000D1E700BFAFF3008000000000000000002E
:1059E00008D8020880BE020864D80208A0C20208D3
:1059F00000230C93129A0C9BBAF1000F08BFA24629
:105A00009B1A102C28460993A146A8BF4FF01009F5
:105A100002F0D8FB092CCDE904013FF737AF4DE781
:105A2000099BA4EB09099944B9F1000F40F3AF8039
:105A300029F00F0719F00F0940F05283B7F59A7F4C
:105A400000F3EB83102FDFF890E14FEA271600F008
:105A50006185DDE904234FF0000C08957746E146A7
:105A6000754616F0010F1046194607D0D7E90023F6
:105A700002F022FC4FF0010C02460B467610012E7C
:105A800009F1010907F10807EBD1AE46089DBCF109
:105A9000000F01D0CDE90423059BA3F154730EEB55
:105AA000C9010593DDE90423D1E9000102F004FCFA
:105AB000464BCDE904010B400A4645498B4200F2B2
:105AC000AC83A1F580118B4240F2C284414B4FF070
:105AD000FF32CDE904235CE0012209929A1C17925F
:105AE0009E7833E700220992F8E701F0DF014529AB
:105AF0007FF4BAAE0021A24612914FF0010E1AE7D0
:105B000002F0DF02452A7FF481AE4FF0000ACDF8A3
